:020000040800F2
:1000000000000220ED330008E5070008E7070008BC
:10001000E9070008EB070008ED07000800000000F2
:10002000000000000000000000000000EF070008D2
:10003000F107000800000000F3070008F5070008BA
:100040003D3400083D3400083D3400083D340008CC
:100050003D3400083D3400083D3400083D340008BC
:100060003D3400083D3400083D3400083D340008AC
:100070003D3400083D3400083D3400083D3400089C
:100080003D3400083D3400083D3400083D3400088C
:100090003D3400083D3400083D3400083D3400087C
:1000A0003D3400083D3400083D3400083D3400086C
:1000B0003D3400083D3400083D3400083D3400085C
:1000C0003D3400083D3400083D3400083D3400084C
:1000D0003D3400083D3400083D3400083D3400083C
:1000E0003D3400083D3400083D3400083D3400082C
:1000F0003D3400083D3400083D3400083D3400081C
:100100003D3400083D3400083D3400083D3400080B
:100110003D3400083D3400083D3400083D340008FB
:100120003D3400083D3400083D3400083D340008EB
:100130003D3400083D3400083D3400083D340008DB
:100140003D3400083D3400083D3400083D340008CB
:100150003D3400083D3400083D3400083D340008BB
:100160003D3400083D3400083D3400083D340008AB
:100170003D3400083D3400083D3400080000000014
:080180003D3400083D34000885
:1001880010B5054C237833B9044B13B10448AFF3C9
:1001980000800123237010BD28000020000000000B
:1001A8009834000808B5034B1BB103490348AFF363
:1001B800008008BD000000002C00002098340008D2
:1001C80053B94AB9002908BF00281CBF4FF0FF31B6
:1001D8004FF0FF3000F072B9ADF1080C6DE904CEB4
:1001E80000F006F8DDF804E0DDE9022304B070470A
:1001F8002DE9F047089E04468846002B4BD18A42D9
:10020800154667D9B2FA82F24AB1C2F1200701FA5B
:1002180002F320FA07F7954047EA030894404FEAAB
:10022800154E230CB8FBFEF71FFA85FC0EFB17884A
:1002380043EA084307FB0CF1994209D9EB1807F187
:10024800FF3080F01B81994240F21881023F2B4415
:100258005B1AA4B2B3FBFEF00EFB103344EA03446E
:1002680000FB0CFCA44509D92C1900F1FF3380F0E0
:100278000781A44540F2048102382C4440EA074033
:10028800A4EB0C0400271EB1D4400023C6E90043A8
:100298003946BDE8F0878B4209D9002E00F0EB8083
:1002A8000027C6E9000138463946BDE8F087B3FAA9
:1002B80083F7002F47D18B4202D3824200F2FA80A3
:1002C800841A61EB030301209846002EE0D0C6E9AA
:1002D8000048DDE702B9FFDEB2FA82F2002A40F0F8
:1002E8008F80491B4FEA154E1FFA85F80127B1FB8D
:1002F800FEFC230C0EFB1C1143EA014308FB0CF126
:10030800994207D9EB180CF1FF3002D2994200F25A
:10031800CD808446591AA3B2B1FBFEF00EFB10142F
:1003280043EA044408FB00F8A04507D92C1900F15A
:10033800FF3302D2A04500F2B6801846A4EB0804A9
:1003480040EA0C409FE7C7F1200CBB4022FA0CFEA4
:100358004EEA030E01FA07F420FA0CF521FA0CF321
:100368004FEA1E482543B3FBF8F92C0C08FB193358
:100378001FFA8EFA44EA034309FB0AF49C4202FA84
:1003880007F200FA07F10BD91EEB030309F1FF305E
:1003980080F087809C4240F28480A9F1020973446E
:1003A8001B1BADB2B3FBF8F008FB103345EA03445E
:1003B80000FB0AFAA24508D91EEB040400F1FF333A
:1003C8006BD2A24569D90238744440EA0940A0FBBF
:1003D8000289A4EB0A044C45C2464B4654D351D07B
:1003E800002E69D0B1EB0A0564EB030404FA0CFC97
:1003F800FD40FC404CEA0505C6E90054002747E7E4
:10040800C2F1200320FA03F7954001FA02F021FA1D
:1004180003F34FEA154E3843010CB3FBFEF71FFAFE
:1004280085F80EFB173341EA034107FB08F38B42BB
:1004380004FA02F407D9691807F1FF3C2FD28B425E
:100448002DD9023F2944CB1A81B2B3FBFEF00EFB33
:10045800103341EA034100FB08F38B4207D96918BE
:1004680000F1FF3C17D28B4215D902382944C91A2A
:1004780040EA07473BE73746304609E70746E7E6DD
:100488001846FBE64145ABD2B8EB020A69EB0E020F
:1004980001381346A4E76046E9E7184695E767463A
:1004A800D1E781467CE702382C4447E7ACF1020CDF
:1004B8002B442FE7384608E73746E9E6704700BF80
:1004C80030B589B0002403940494059406940794E5
:1004D8000094184B1A6B42F004021A631A6B02F06C
:1004E80004020092009A01941A6B42F001021A6306
:1004F8001A6B02F001020192019A02941A6B42F0FF
:1005080002021A631B6B03F002030293029B0A4D5B
:1005180022460221284600F021FB022303930123EF
:1005280004930594069403A9284600F02DFA09B00F
:1005380030BD00BF003802400000024072B6FEE73E
:1005480008B50D480D4B03604FF4827343600023D8
:100558008360C360036143614FF40072826130229B
:10056800C2610362436283620A23C36200F042FFEE
:1005780000B908BDFFF7E2FF7C000020003800400A
:1005880000B599B0302200210DEB020002F078FF8F
:1005980000230793089309930A930B9303930493F7
:1005A80005930693254A516821F03F0141F008015F
:1005B8005160516841F4800151600193116C41F020
:1005C80080511164126C02F080520192019A0293D8
:1005D8001B4A116841F480411160126802F480429C
:1005E8000292029A01220C924FF480320D921293D9
:1005F8004FF4800313930CA800F0B6FAC0B90F2388
:10060800079301230893002109910A910B9107A8E8
:1006180000F0FAFC70B901230393C023049302236A
:10062800059303A800F0A0FD30B919B05DF804FBEC
:10063800FFF784FFFFF782FFFFF780FF00380240D3
:100648000070004010B5ADF58F6D00F001F9FFF7AF
:1006580097FFFFF735FFFFF773FF01F041F84FF4FD
:100668007A7000F021F9012224498FA802F0AAFB30
:1006780000B1FEE701AA02A9204802F019FE00B164
:10068800FEE701221E4903A802F0CEFB00B1FEE7F7
:100698001C4C0DF274432C22214603A802F0D8FC0E
:1006A80094F82430642B24D19DF86C34642B0DD13C
:1006B8000024144B5B68A34211D803A802F0DEFDA6
:1006C80000220E49104602F07DFBFEE70DF274434E
:1006D80004220DF26C4103A802F0BAFCE4E70DF223
:1006E800744302220DF2724103A802F0B1FC0134F6
:1006F800DFE701200DF58F6D10BD00BF70350008D4
:1007080068350008D400002082B0002100910B4B0E
:100718005A6C42F480425A645A6C02F48042009245
:10072800009A01911A6C42F080521A641B6C03F013
:1007380080530193019B02B0704700BF003802400C
:10074800F0B589B0002303930493059306930793A8
:1007580002681F4B9A4201D009B0F0BD00240094F2
:1007680003F500331A6C42F480421A641A6C02F4DE
:1007780080420092009A01941A6B42F004021A63B4
:100788001A6B02F004020192019A02941A6B42F069
:1007980002021A631B6B03F002030293029B0C23F1
:1007A80003930227049703260696052507950DEB64
:1007B8000301084800F0E8F84FF4806303930497B6
:1007C80005940696079503A9034800F0DDF8C3E7EA
:1007D800003800400008024000040240FEE7FEE73F
:1007E800FEE7FEE7FEE770477047704708B500F080
:1007F80049F808BD034AD2F8883043F47003C2F8B8
:100808008830704700ED00E010B504460E4B1878AC
:100818004FF47A73B3FBF0F30C4A1068B0FBF3F0B3
:1008280000F09CF868B90F2C01D901200AE00022D9
:1008380021464FF0FF3000F05DF8034B5C6000206C
:1008480000E0012010BD00BF0400002000000020CF
:1008580008B50B4B1A6842F400721A601A6842F421
:1008680080621A601A6842F480721A60032000F0ED
:100878002FF80020FFF7C8FFFFF746FF002008BD4C
:10088800003C0240034A1168034B1B780B44136079
:10089800704700BF0001002004000020014B1868C9
:1008A800704700BF0001002038B50446FFF7F6FF87
:1008B8000546B4F1FF3F02D0044B1B781C44FFF7F8
:1008C800EDFF401BA042FAD338BD00BF0400002052
:1008D800074AD36823F4E0631B041B0C000200F4EE
:1008E800E060184340F0BF6040F40030D0607047CB
:1008F80000ED00E030B4174BDB68C3F30223C3F10B
:100908000704042C28BF04241D1D062D18D9033BF9
:100918004FF0FF3505FA04F421EA0401994005FA7D
:1009280003F322EA0303194300280BDB0901C9B2C8
:1009380000F1604000F5614080F8001330BC70475A
:100948000023E5E700F00F000901C9B2024B195472
:10095800F4E700BF00ED00E014ED00E00138B0F16D
:10096800807F0AD2064B5860064AF02182F823108D
:100978000020986007221A6070470120704700BF66
:1009880010E000E000ED00E000230F2B00F2DC8017
:10099800F0B482B05DE086685F000324BC4026EABC
:1009A8000406CC68BC4034438460466826EA0206E4
:1009B8004C68C4F300129A403243426056E0DC08A7
:1009C800083450F8247003F0070296000F22B24052
:1009D80027EA02070A69B2403A4340F8242059E05E
:1009E800072200E00022B2403A430234574E46F84C
:1009F8002420574A1468EA4302EA04064F6817F4A9
:100A0800803F01D045EA0406514C2660646802EA3A
:100A180004064F6817F4003F01D045EA04064C4C21
:100A28006660A46802EA04064F6817F4801F01D0C4
:100A380045EA0406464CA660E46822404E6816F46F
:100A4800001F01D045EA0402414CE26001330F2B3C
:100A580077D801229A400C6804EA0205AA42F5D127
:100A68004C6804F00304013C012C94D94A6802F054
:100A78000302032A09D0C4685E000322B24024EAB4
:100A880002048A68B2402243C2604A6802F0030244
:100A9800022A94D004685E000322B24024EA0204C9
:100AA8004A6802F00302B240224302604A6812F424
:100AB800403FCBD000220192264A546C44F4804433
:100AC8005464526C02F480420192019A9C08A61C5C
:100AD8001E4A52F8267003F0030296000F22B24015
:100AE80027EA02071C4A90423FF47CAF02F5806275
:100AF80090421AD002F58062904218D002F58062C6
:100B0800904216D002F58062904214D002F58062BD
:100B1800904212D002F58062904210D002F58062B5
:100B280090423FF45DAF08225DE701225BE70222B5
:100B380059E7032257E7042255E7052253E706221F
:100B480051E702B0F0BC7047704700BF0038014061
:100B5800003C0140003802400000024012B909047C
:100B68008161704781617047002800F0E98170B5A4
:100B780082B00446036813F0010F3BD0A74B9B6873
:100B880003F00C03042B2CD0A44B9B6803F00C033C
:100B9800082B21D06368B3F5803F4FD0B3F5A02F61
:100BA80052D09E4B1A6822F480321A601A6822F4D6
:100BB80080221A606368002B50D0FFF76FFE05464D
:100BC800964B1B6813F4003F14D1FFF767FE401BD8
:100BD8006428F5D90320B8E1904B5B6813F4800FC3
:100BE800D8D08E4B1B6813F4003F03D06368002BEA
:100BF80000F0A881236813F0020F55D0874B9B683B
:100C080013F00C0F3ED0854B9B6803F00C03082BA8
:100C180033D0E368002B68D0814B01221A60FFF7BC
:100C28003DFE05467D4B1B6813F0020F54D1FFF7BC
:100C380035FE401B0228F5D9032086E1774A136860
:100C480043F480331360B5E7744B1A6842F480228A
:100C58001A601A6842F480321A60ABE7FFF71EFE8A
:100C680005466E4B1B6813F4003FC3D0FFF716FE12
:100C7800401B6428F5D9032067E1684B5B6813F4CF
:100C8800800FC6D1654B1B6813F0020F04D0E368D0
:100C9800012B01D0012058E1604A136823F0F803C2
:100CA800216943EAC1031360236813F0080F40D099
:100CB800636963B35B4B01221A60FFF7EFFD0546DA
:100CC800564B5B6F13F0020F33D1FFF7E7FD401B64
:100CD8000228F5D9032038E1504A136823F0F803B5
:100CE800216943EAC1031360DEE74D4B00221A6015
:100CF800FFF7D4FD0546494B1B6813F0020FD3D00C
:100D0800FFF7CCFD401B0228F5D903201DE1454B18
:100D180000221A60FFF7C2FD0546404B5B6F13F0D7
:100D2800020F06D0FFF7BAFD401B0228F5D90320B1
:100D38000BE1236813F0040F79D0384B1B6C13F0C8
:100D4800805F33D100230193344B1A6C42F08052F8
:100D58001A641B6C03F080530193019B0125324BED
:100D68001B6813F4807F23D0A368012B34D0052B94
:100D780038D02A4B1A6F22F001021A671A6F22F034
:100D880004021A67A368002B36D0FFF787FD0646D2
:100D9800224B1B6F13F0020F48D1FFF77FFD801B1A
:100DA80041F288339842F3D90320CEE00025D6E7F4
:100DB8001D4A136843F480731360FFF76FFD0646FE
:100DC800194B1B6813F4807FCED1FFF767FD801B9A
:100DD8000228F5D90320B8E0104A136F43F0010345
:100DE8001367CFE70D4B1A6F42F004021A671A6FA8
:100DF80042F001021A67C5E7FFF750FD0646074BA8
:100E08001B6F13F0020F11D0FFF748FD801B41F252
:100E180088339842F3D9032097E000BF0038024096
:100E280000004742800E474200700040EDB9A369B8
:100E3800002B00F08980484A926802F00C02082AC8
:100E480051D0022B17D0454B00221A60FFF726FD20
:100E58000446414B1B6813F0007F42D0FFF71EFD8C
:100E6800001B0228F5D903206FE03B4A136C23F0DE
:100E780080531364DBE7394B00221A60FFF70EFD3D
:100E88000546354B1B6813F0007F06D0FFF706FDBB
:100E9800401B0228F5D9032057E0E369226A13436F
:100EA800626A43EA8213A26A5208013A43EA024399
:100EB800E26A43EA0263284A5360284B01221A6017
:100EC800FFF7ECFC0446244B1B6813F0007F06D1A7
:100ED800FFF7E4FC001B0228F5D9032035E00020C9
:100EE80033E0002031E0012B31D01B4B5B6803F469
:100EF8008001E269914201D0012026E003F03F021F
:100F0800216A8A4201D001201FE0616A47F6C07257
:100F18001A40B2EB811F01D0012016E003F44031E2
:100F2800A26A5208013AB1EB024F01D001200CE04D
:100F380003F07063E26AB3EB026F0AD0012004E0A9
:100F480001207047012000E0002002B070BD0120A0
:100F5800FBE70020F9E700BF003802406000474285
:100F6800264B9B6803F00C03042B44D0082B01D0BC
:100F7800234870472DE9F04B204B5A6802F03F0296
:100F88005B6813F4800F13D01C4B5968C1F38811A8
:100F980000231C48A1FB0001FFF712F9174B5B68FF
:100FA800C3F3014301335B00B0FBF3F0BDE8F08B02
:100FB800124B5B68C3F388131E4600275C010025AB
:100FC800E41A65EB0705A90141EA9461A001001B39
:100FD80061EB0501CB0043EA5073C400A01943EB51
:100FE80007018B0243EA90538402204619460023E6
:100FF800FFF7E6F8D2E70348704700BF0038024021
:101008000024F40040787D01002800F09E8070B52F
:101018000446504B1B6803F007038B4209D2CBB23E
:101028004C4A1370136803F007038B4201D0012068
:1010380070BD236813F0020F17D013F0040F04D00B
:10104800454A936843F4E0539360236813F0080F0C
:1010580004D0414A936843F4604393603E4A9368DE
:1010680023F0F003A068034393600D46236813F050
:10107800010F32D06368012B21D09A1E012A25D98D
:10108800354A126812F0020F61D033498A6822F09B
:10109800030213438B60FFF701FC06462E4B9B6847
:1010A80003F00C036268B3EB820F16D0FFF7F6FB70
:1010B800801B41F288339842F0D90320B8E7264ACA
:1010C800126812F4003FE0D10120B1E7224A126809
:1010D80012F0007FD9D10120AAE71E4B1B6803F04C
:1010E8000703AB4209D9EAB21A4B1A701B6803F01E
:1010F8000703AB4201D001209AE7236813F0040FDD
:1011080006D0154A936823F4E053E1680B439360D3
:10111800236813F0080F07D00F4A936823F460433D
:10112800216943EAC1039360FFF71AFF0A4B9B68E2
:10113800C3F30313094AD35CD840094B1860094B21
:101148001868FFF761FB002072E701207047012053
:101158006EE700BF003C024000380240B03400088F
:10116800000000200800002030B583B00446036862
:1011780013F0050F06D1236813F0020F2ED10020BB
:1011880003B030BD494B00221A60FFF787FB0546C4
:10119800474B1B6813F0006F06D0FFF77FFB401B1F
:1011A8000228F5D90320EBE76268A3681B0743EA26
:1011B80082133F4AC2F884303C4B01221A60FFF781
:1011C8006DFB05463A4B1B6813F0006FD3D1FFF750
:1011D80065FB401B0228F5D90320D1E700230193C2
:1011E800334B1A6C42F080521A641B6C03F0805324
:1011F8000193019B2F4A136843F480731360FFF730
:101208004DFB05462B4B1B6813F4807F06D1FFF777
:1012180045FB401B0228F5D90320B1E7244B1B6F7F
:1012280013F4407312D0E26802F440729A420DD06F
:101238001F4B1A6F22F440721F49012008600020DA
:1012480008601A671B6F13F0010F13D1E36803F4EA
:101258004072B2F5407F1ED0154A936823F4F81304
:10126800936013490B6FE268C2F30B0213430B67D9
:10127800002085E7FFF712FB05460D4B1B6F13F0A7
:10128800020FE3D1FFF70AFB401B41F28833984273
:10129800F3D9032074E706498A6822F4F81223F088
:1012A800704323F4407313438B60DAE768004742C6
:1012B8000038024000700040400E47422DE9F043DC
:1012C80083B004460F4616461D46FFF7E7FA0A9B09
:1012D800181A00EB0508FFF7E1FA81462A4B1B684C
:1012E800C3F3CB3308FB03F3019323689B6837EA06
:1012F80003030CBF01230023B34240D0B5F1FF3FE5
:10130800F3D0FFF7CBFAA0EB090040450AD2B8F1B9
:10131800000F07D0019B0BB94FF00008019B013B60
:101328000193E2E72268536823F0E003536063689F
:10133800B3F5827F0BD0A36AB3F5005F14D0012305
:1013480084F85130002384F85030032018E0A36853
:10135800B3F5004F02D0B3F5806FECD12268136863
:1013680023F040031360E6E72268136823F4005370
:1013780013602268136843F400531360DFE700200A
:1013880003B0BDE8F08300BF0000002030B585B091
:10139800164C2468164DA5FB0434640D4FF47A7579
:1013A80005FB04F403944468B4F5827F0BD0039BD7
:1013B800C3B1039B013B039303689B6813F0800F41
:1013C800F5D100230FE00B4604460092002280214D
:1013D800FFF774FF034630B1636D43F02003636584
:1013E800032300E00023184605B030BD00000020AC
:1013F800819F5E1600285AD010B50446436A33B957
:101408004368B3F5827F05D00023C36102E000235F
:10141800036143610023A36294F85130002B40D04C
:10142800022384F851302268136823F040031360C4
:10143800636803F48273A26802F404421343E26807
:1014480002F400621343226902F002021343626944
:1014580002F001021343A26902F400721343E26925
:1014680002F038021343226A02F080021343A26A90
:1014780002F40052216813430B60638B03F00403EA
:10148800626A02F01002216813434B602268D36934
:1014980023F40063D36100206065012384F8513090
:1014A80010BD84F850302046FFF74AF9B8E701200C
:1014B80070472DE9F04383B0DDF8288090F850405C
:1014C800012C00F00B811D4617460E4604460123E9
:1014D80080F85030FFF7E2F9814694F85100C0B225
:1014E8006368012815D0B3F5827F0AD00223012250
:1014F80084F85120002284F85020184603B0BDE833
:10150800F083A368002B40F0DB80042801D002237D
:10151800EDE7002E00F0D680002F00F0D580002DDA
:1015280000F0D48094F85130DBB2042B02D00523AC
:1015380084F8513000236365A763E587A587266390
:10154800E586A5862364636423681A6812F0400F51
:1015580003D11A6842F040021A60E368B3F5006FDD
:1015680010D063680BB1012D0AD1226B2368127861
:101578001A73236B01332363E38E013B9BB2E3862B
:10158800012569E063680BB1012D0AD1226B23683C
:101598001288DA60236B02332363E38E013B9BB22C
:1015A800E38601251BE023689A6812F0010F0DD02D
:1015B800E28F92B252B1DA68A36B1A80A36B02333E
:1015C800A363E38F013B9BB2E3870125FFF766F92D
:1015D800A0EB0900404502D3B8F1FF3F78D1E38E74
:1015E8009BB21BB9E38F9BB2002B52D023689A6839
:1015F80012F0020FD7D0E28E92B2002AD3D0002D7B
:10160800D1D0226B1288DA60236B02332363E38E16
:10161800013B9BB2E3860025C5E723689A6812F070
:10162800010F0DD0E28F92B252B1DA68A36B1A7033
:10163800A36B0133A363E38F013B9BB2E3870125CF
:10164800FFF72CF9A0EB0900404502D3B8F1FF3FA2
:1016580040D1B8F1000F3FD0E38E9BB213B9E38FAE
:101668009BB2B3B123689A6812F0020FD5D0E28E0C
:1016780092B2002AD1D0002DCFD0226B12781A73E3
:10168800236B01332363E38E013B9BB2E386002582
:10169800C3E74A4641462046FFF778FE034618B19D
:1016A80020236365012322E7A268002A7FF41FAF85
:1016B80001922268D168019192680192019A16E715
:1016C800022314E7012312E7012310E701230EE7A1
:1016D80003230CE703230AE7032308E702230CE7A5
:1016E80008B50349034801F077FE034B187008BD9D
:1016F800040100201000002008010020002070478D
:1017080008B5034B01221A7000F030F908BD00BF7C
:101718000C00002008B5034B01221A7000F026F9CE
:1017280008BD00BF0C00002008B500F0D3F908BDC3
:1017380008B500F015FA08BD08B500F069FA08BD4B
:1017480000B587B08DF80F003223009301230DF107
:1017580017020DF10F010448FFF7ABFE9DF81700C3
:1017680007B05DF804FB00BF7C00002070B506469A
:10177800FFF794F80546FF20FFF7E2FF0446FF282D
:1017880004D0FFF78BF8401BB042F4D3FF2C14BFF2
:101798000020012070BD70B506460D46002404E007
:1017A800FF20FFF7CDFF30550134AC42F8D370BDB0
:1017B80070B506460D46002403E0305DFFF7C0FF14
:1017C8000134AC42F9D370BD38B505460C464FF428
:1017D800FA70FFF7CBFF034608B9184638BD204614
:1017E800FFF7AEFFFD2C13D04FF400712846FFF72A
:1017F800DFFFFF20FFF7A4FFFF20FFF7A1FFFF2077
:10180800FFF79EFF00F01F00052803D00023E4E740
:101818000123E2E70123E0E708B50122022103489A
:10182800FFF79CF9FF20FFF78BFF08BD000002407F
:1018380010B5002202210948FFF790F9FF20FFF7B1
:101848007FFF4FF4FA70FFF791FF10B10124204693
:1018580010BD0446FFF7E0FFF9E700BF00000240B3
:1018680038B504460D4610F0800F2CD10C2C04D04E
:10187800FFF7D2FFFFF7DCFFB0B344F04000FFF7FB
:101888005FFF280EFFF75CFFC5F30740FFF758FF1F
:10189800C5F30720FFF754FFE8B2FFF751FFDCB1AB
:1018A8000120082C1AD0FFF74BFF0C2C18D00A2463
:1018B800FF20FFF745FF10F0800F03D0631E13F0E1
:1018C800FF04F5D138BD00F07F0400213720FFF771
:1018D800C7FF0128F6D8C9E79520E2E78720E2E7A5
:1018E800FF20FFF72DFFE2E7FF20EBE710B50446E6
:1018F800FEF7D4FF024B1860024B1C6010BD00BFFE
:101908006C0500207005002008B5FEF7C7FF054BE1
:101918001B68C01A044B1B6898422CBF002001208A
:1019280008BD00BF6C0500207005002070B5054695
:101938000E46C820FFF7DAFFFF20FFF701FF044635
:10194800FF2803D1FFF7E0FF0028F5D1FE2C01D0D6
:10195800002070BD31462846FFF71DFFFF20FFF726
:10196800EFFEFF20FFF7ECFE0120F2E7002840F031
:10197800A880554B1B7813F0020F0BD170B582B0BD
:10198800524B1A68136823F0380343F0300313608E
:101998000A2408E04C4B1878C0B27047FF20FFF7C4
:1019A800CFFE013CE4B2002CF8D100210846FFF735
:1019B80057FF0546012817D0454B1C70FFF72CFF31
:1019C800002C7AD0414B1A68136823F0380343F08F
:1019D800100313603C4A137803F0FE0313703A4B6C
:1019E8001878C0B202B070BD4FF47A70FFF77EFF6E
:1019F8004FF4D5710820FFF733FF01283BD1254666
:101A080008E0FF20FFF79CFE02AB2B4403F8040C10
:101A18000135EDB2032DF4D99DF80630012BCBD159
:101A28009DF80730AA2BC7D1FFF76EFF30B14FF0F2
:101A38008041A920FFF714FF0028F5D1FFF764FFC4
:101A48000028B9D000213A20FFF70AFF054648B11F
:101A5800B2E7FF20FFF774FE02AB2B4403F8040C37
:101A68000135EDB2032DF4D99DF8043013F0400F81
:101A780021D00C24A0E70021A920FFF7F1FE0128BE
:101A880016D92E46FFF740FF28B100212846FFF758
:101A9800E7FE0028F6D1FFF737FF00288CD04FF477
:101AA80000711020FFF7DCFE002885D1344683E75B
:101AB8000226A925E6E704247EE7034B01221A70D3
:101AC8008DE70120704700BF240000207C00002023
:101AD80044000020002839D138B50D461C46002B9B
:101AE80036D01D4B1B7813F0010F33D11B4B1B78DD
:101AF80013F0080F00D15202012C18D01146122001
:101B0800FFF7AEFE68B94FF400712846FFF70EFFE5
:101B180018B105F50075013CF5D100210C20FFF73F
:101B28009FFEFFF779FE201C18BF012038BD114623
:101B38001120FFF795FE0028F3D14FF400712846D5
:101B4800FFF7F4FE0028ECD00024EAE704207047F1
:101B58000420EBE70320E9E72400002044000020EC
:101B6800002848D170B50D4616461C46002B44D0B7
:101B7800254B1B7813F0010F41D1234B1B7813F031
:101B8800040F3ED1214B1B7813F0080F00D15602E9
:101B9800012C1BD013F0060F26D131461920FFF770
:101BA8005FFE68B9FC212846FFF70EFE18B105F55F
:101BB8000075013CF6D1FD210020FFF705FEC0B1FC
:101BC800FFF72AFE201C18BF012070BD31461820DF
:101BD800FFF746FE0028F3D1FE212846FFF7F4FD63
:101BE8000028EDD00024EBE721469720FFF738FEC8
:101BF800D3E70124E4E7042070470420E5E7032045
:101C0800E3E70220E1E700BF2400002044000020B1
:101C180030B585B0002840F0058103468348007838
:101C280010F0010F40F000811546042900F2EE8003
:101C3800DFE811F005000C00EC005100AC00FFF7E4
:101C4800F7FD002840F0E4800124A5E000210920E8
:101C5800FFF706FE08B101249EE010216846FFF751
:101C680065FE002800F0D6809DF800309B09012B06
:101C780020D09DF8052002F00F029DF80A3002EBF3
:101C8800D3129DF809305B0003F006031A449DF84F
:101C980008109DF807309B0003EB91139DF8061080
:101CA800890201F440610B440133073A93402B60E9
:101CB800002471E09DF809309DF8082003EB022309
:101CC8009DF80720120402F47C12134401339B028E
:101CD8002B60002460E0564B1B7813F0040F20D0D3
:101CE80000218D20FFF7BCFD08B1012454E0FF203E
:101CF800FFF726FD10216846FFF718FE78B9012482
:101D08004AE0FF20FFF71CFD013CE4B2002CF8D1AB
:101D18009DF80A301A09102393402B603CE03024C8
:101D2800F4E700210920FFF79BFD08B1012433E007
:101D380010216846FFF7FAFD00286DD03C4B1B7850
:101D480013F0020F11D09DF80A305B0003F07E03F8
:101D58009DF80B2003EBD21301339DF80D20920957
:101D6800013A93402B60002416E09DF80A30C3F333
:101D780084029DF80B10CB0003F0180303EB5113FA
:101D8800013302FB03332B60002405E0284A127854
:101D980012F0060F05D10124FFF73EFD204605B0DD
:101DA80030BD6A460B211846FFF732FF0446A8BB30
:101DB8009DF800309B0904D19DF80A3013F0400FBC
:101DC8002ED029686D681A4B1B7813F0080F01D1C3
:101DD80049026D022020FFF743FD08B10124DBE72B
:101DE80029462120FFF73CFD08B10124D4E7002152
:101DF8002620FFF735FD08B10124CDE747F2305022
:101E0800FFF7B4FC0028C7D10124C5E70424C3E7C1
:101E18000024C1E70124BFE70124BDE70124BBE793
:101E28000124B9E70424B9E70324B7E72400002014
:101E38004400002008B5044B03EB80025268526846
:101E48000344187A904708BD7000002008B5084B75
:101E58001B5C53B9064B01221A5403EB80025268EB
:101E680012681844007A904708BD0020FCE700BFBC
:101E78007000002038B5044C04EB80056D68AD682F
:101E88000444207AA84738BD7000002038B5044CB7
:101E980004EB80056D68ED680444207AA84738BDD6
:101EA8007000002010B5044B03EB800464682469BB
:101EB8000344187AA04710BD7000002042780078CB
:101EC80040EA02207047C278837843EA02224378C6
:101ED80043EA0223007840EA032070470170090AA8
:101EE800417070470170C1F307234370C1F3074382
:101EF8008370090EC170704713462AB10A780270C0
:101F080001300131013BF9D1704701700130013ACC
:101F1800FBD1704730B4451C037808781B1A013A86
:101F280004D04C1C28462146002BF4D0184630BC5F
:101F3800704700E0013003780BB18B42FAD11846A4
:101F48007047000030B400252B4601E0012501331D
:101F5800012B15D81A01174CA258002AF6D004688C
:101F6800A242F4D1134A02EB0312546882689442E5
:101F7800EDD1104A02EB0312946842699442E6D10B
:101F8800022B0AD0A1B90B4A02EB03139B89B3F5C4
:101F9800807F07D0002030BC70472DB9022905D1B9
:101FA8000020F8E71020F6E70020F4E71220F2E717
:101FB8001020F0E748000020002000E00130012850
:101FC80004D80301034AD358002BF7D1023818BFAD
:101FD800012070474800002070B4002300E001335E
:101FE800012B13D81A01244CA45802689442F6D144
:101FF800214A02EB0312546882689442EFD11E4AC8
:1020080002EB0312946842699442E8D1022B29D06A
:1020180021B1194A02EB0312928952BB21BB164A1D
:1020280002EB03129189013189B2134A02EB0312C0
:102038009181581C70BC70470133012B04D81A01D8
:102048000D4CA258002AF7D1022B10D006680A4D71
:102058001C012A192E518468546040699060002040
:102068009081D5E70023E8E74FF48071DDE7002091
:10207800E0E70020DEE700BF480000200138012823
:1020880015D80D4B03EB00139B89B3F5807F03D064
:102098001BB1013B9BB200E00023074A02EB001290
:1020A800938133B903010020034AD05070470220BE
:1020B80070470020704700BF48000020002303E05D
:1020C8005DF8044B70470133012B11D81A010949F7
:1020D8008A588242F7D110B41A0100248C50013377
:1020E800012BEDD81A0103498A588242F7D1F3E748
:1020F800704700BF4800002002394369023B8B4209
:1021080004D94389806A01FB0300704700207047A7
:102118000268C36A0433490A5289B1FBF2F11868AC
:1021280030B1814202D3091A0833F8E758680844E5
:10213800704770B506460D4601F11A00FFF7BEFE5E
:102148003378032B00D070BD044605F11400FFF767
:10215800B5FE44EA0040F6E770B506460C4615465B
:1021680091B204F11A00FFF7B9FE3378032B00D0BF
:1021780070BD290C04F11400FFF7B0FEF8E7000069
:102188002DE9F84F82468B460F6800F124090B228F
:1021980020214846FFF7B9FE002633464FF00808CD
:1021A8002CE001357B5D2F2BFBD05C2BF9D03D4417
:1021B800CBF80050002E43D09AF82430E52B35D0C8
:1021C800202C37D804238AF82F30002028E008264E
:1021D8004FF00B0811E014F0800F23D12146194865
:1021E800FFF7A7FE50BBA4F16103DBB2192B01D89E
:1021F800203CE4B209F8064001362B465D1CFC5C25
:10220800202CD4D92F2CCDD05C2CCBD02E2C01D087
:10221800B045E0D8B8F10B0F0ED02E2CD7D0062041
:10222800BDE8F88F803C084B1C5DD7E705238AF88A
:102238002430C5E70023C6E70620F1E70620EFE7CC
:102248000620EDE774350008C8340008016809B1B4
:102258000A4603E04FF0FF3308E001321378202BE1
:1022680001D93A2BF9D13A2B02D0002318467047EE
:1022780010B44C1C0B78303B092B08D8A24209D16A
:102288005BB90132026018465DF8044B70474FF0A5
:10229800FF33F8E74FF0FF33F5E74FF0FF33F2E78E
:1022A80038B50D46A8B104460368ABB11A78AAB18F
:1022B8008188DA88914203D0092000232B6038BD39
:1022C8005878FFF7B7FD10F0010F0AD123680020F6
:1022D800F4E709200023F1E70920EFE709200023AC
:1022E800ECE709200023E9E7F8B5C3780BB900202B
:1022F800F8BD0446C56A00F1300701232A4639466D
:102308004078FFF7C3FDA8B90023E370236AEB1AEE
:10231800A269934210D2A678012E09D9A3691D4457
:1023280001232A4639466078FFF7B0FD013EF3E7FE
:102338000020DDE70120DBE70020D9E770B5C36A9C
:102348008B4212D004460D46FFF7CEFF064668B909
:1023580001232A4604F130016078FFF78BFD10B1A4
:1023680001264FF0FF35E56200E00026304670BDDB
:1023780010B504460023C3704FF0FF33C362FFF764
:10238800DDFF18BB04F22E20FFF798FD4AF655230F
:1023980098421DD194F83030E92B05D0236B03F017
:1023A800FF130F4A934215D104F16600FFF78BFD26
:1023B80020F07F400B4B98420ED004F18200FFF7CB
:1023C80082FD094B984209D1002002E0042000E078
:1023D800032010BD0220FCE70020FAE70220F8E7FE
:1023E800EB00900046415400464154332DE9F04734
:1023F80084B00F46164600230B60FFF727FF051E23
:10240800C0F24581B74B03EB85031C6A002C00F032
:1024180042813C6006F0FE06237873B16078FFF7CE
:1024280009FD10F0010F08D1002E00F0368110F0E0
:10243800040F40F0348100202AE100232370E8B221
:102448006070FFF703FD10F0010F40F02A811EB104
:1024580010F0040F40F0278100212046FFF788FF85
:10246800022800F0B6800026042800F01E8101280A
:1024780000F21D8104F13B00FFF720FDB0F5007F5D
:1024880040F0178104F14600FFF718FD074620B910
:1024980004F15400FFF717FD0746A76194F84020A0
:1024A800A270531EDBB2012B00F2058107FB02F577
:1024B80094F83D80A4F80A80B8F1000F00F0FD8080
:1024C80008F1FF3318EA030F40F0F98004F14100E6
:1024D800FFF7F4FC8246208110F00F0F40F0F180E6
:1024E80004F14300FFF7EAFC814620B904F15000EB
:1024F800FFF7E9FC814604F13E00FFF7DFFC0146E7
:10250800002800F0E080421902EB1A129145C0F051
:10251800DC80A9EB0203B3FBF8F3002B00F0D780B3
:102528004FF6F57083426CD94FF0030940F6F57009
:10253800834201D84FF0010903F10208C4F814805E
:10254800E6618B1923623244A262B9F1030F5BD0B2
:10255800BAF1000F00F0C1802B446362B9F1020F99
:1025680063D008EB480208F0010303EB520303F2BF
:10257800FF13B7EB532FC0F0B2804FF0FF33236146
:10258800E36080232371B9F1030F51D084F80090E0
:10259800544A938C01339BB29384E3802046FFF71F
:1025A8008DFD002074E0002004AB03EB850343F8A5
:1025B800100C0135032D0ED804F130002B0103F562
:1025C800DF7318440379002BEDD00830FFF77BFC4C
:1025D800EAE70025EEE700250AE031462046FFF746
:1025E800C7FE01287FF640AF0135032D3FF63CAF0B
:1025F80004AB03EB850353F8106C002EEDD10320D8
:10260800F2E74FF0020991E704F15A00FFF756FC90
:1026180000285ED1BAF1000F5DD104F15C00FFF72C
:1026280052FC60624FEA8803A1E74FEA48039EE73D
:1026380004F16000FFF742FC0128A7D1711C204675
:10264800FFF77CFE0028A1D10023237104F22E207D
:10265800FFF734FC4AF65523984297D104F130002D
:10266800FFF731FC204B984290D104F50570FFF735
:102678002AFC1E4B984289D104F50670FFF723FC0B
:10268800206104F50770FFF71EFCE0607EE70B2071
:1026980004B0BDE8F0870C20FAE70020F8E70A202C
:1026A800F6E70320F4E70A20F2E70120F0E70D201F
:1026B800EEE70D20ECE70D20EAE70D20E8E70D2016
:1026C800E6E70D20E4E70D20E2E70D20E0E70D2026
:1026D800DEE70D20DCE70D20DAE70D20D8E70D2036
:1026E800D6E700BF48000020525261417272416132
:1026F8002DE9F04701297AD943698B4279D91746E0
:102708000C4606460378022B43D0032B54D0012BEA
:1027180001D002256EE001EB5108016A01EB582156
:10272800FFF70CFE0546002864D106F1300A08F1CF
:102738000109C8F3080814F001041FD01AF9083079
:1027480003F00F033A0102F47F621343DBB20AF885
:1027580008300123F370316A01EB59213046FFF745
:10276800EDFD0546002845D1C9F3080944B1C7F372
:1027780007120AF809200123F3703BE0FBB2E6E7F1
:102788001AF9092022F00F02C7F303273A43D2B2FD
:10279800EFE7016A01EB1421FFF7D0FD054648BBBE
:1027A80006F13000640004F4FF74B9B22044FFF766
:1027B80095FB0123F3701DE0016A01EBD411FFF7CB
:1027C800BDFD0546B0B927F0704706F13003A100FA
:1027D80001F4FE715C182046FFF775FB00F07041AC
:1027E80039432046FFF77EFB0123F37002E0022500
:1027F80000E002252846BDE8F087F8B506680129FB
:1028080053D973698B4252D90C463378022B2BD09B
:10281800032B39D0012B01D0012047E001EB5105F2
:10282800316A01EB55213046FFF788FD002840D179
:102838006F1CC5F30805354495F83050316A01EB33
:1028480057213046FFF77AFDB0BBC7F3080333447E
:1028580093F8300045EA002014F0010F01D0000978
:1028680024E0C0F30B0021E0316A01EB142130466B
:10287800FFF764FD18BB06F13000610001F4FF7139
:102888000844FFF71BFB11E0316A01EBD411304615
:10289800FFF754FDB0B93036A10001F4FE703044A2
:1028A800FFF711FB20F0704000E00120F8BD012087
:1028B800FCE74FF0FF30F9E74FF0FF30F6E74FF055
:1028C800FF30F3E74FF0FF30F0E72DE9F0410768FC
:1028D800B1F5001F3BD206460D4611F01F0F39D146
:1028E800716184681CB93B78022B00D97C6A94B961
:1028F8003B89B3EB551F2FD97B6AF361B461F36948
:1029080093B303EB5523F3613037C5F308053D4412
:10291800356200201CE0B7F80A804FEA4828454590
:102928000FD321463046FFF768FF0446B0F1FF3F5A
:1029380014D0012814D97B69834213D9A5EB080563
:10294800EDE721463846FFF7D7FBF061D6E70220CE
:10295800BDE8F0810220FBE70220F9E70120F7E754
:102968000220F5E70220F3E70220F1E72DE9F04124
:1029780007460668884631B9F5688DB17369AB4278
:102988000FD801250DE0FFF738FF0346012847D986
:10299800B0F1FF3F49D07269824246D8454600E00F
:1029A80001252C460CE021463846FFF726FF034652
:1029B80070B1012839D0B0F1FF3F36D0AC4233D0E6
:1029C80001347369A342EED8012D2BD90224EAE71A
:1029D8004FF0FF3221463046FFF78AFE034610B912
:1029E800B8F1000F0ED1A3B9F46032697369023BE4
:1029F8009A4201D8013A3261337943F001033371C5
:102A0800234612E0224641463046FFF771FE034650
:102A1800E9E7012B01D0012307E04FF0FF3304E081
:102A2800012302E0002300E000231846BDE8F081FE
:102A3800F8B50E46056801292ED9074611466B6977
:102A4800B3422CD952B14FF0FF322846FFF750FE5F
:102A5800844618B125E02646A24222D93146384696
:102A6800FFF7CBFE0446F0B101281FD0B0F1FF3FBD
:102A78001FD0002231462846FFF73AFE844680B927
:102A88002B696A69911E8B42E5D201332B612B7940
:102A980043F001032B71DEE74FF0020C01E04FF029
:102AA800020C6046F8BD4FF0000CFAE74FF0020C3C
:102AB800F7E74FF0010CF4E72DE9F843066845699C
:102AC800C369002B6ED02035B5F5001F6CD288463F
:102AD8000446C5F308073FB90133C361816979B971
:102AE8003389B3EB551F07D9656106F130033B44C1
:102AF80023620020BDE8F8830023C3610420F9E7BE
:102B08007389013B13EA5523EED1FFF776FE814620
:102B180001284BD9B0F1FF3F4AD07369834239D8B5
:102B2800B8F1000F11D0A1692046FFF71FFF8146B9
:102B380000283FD001283FD0B0F1FF3F3ED03046BB
:102B4800FFF7D2FB28B10120D4E70023E36104207A
:102B5800D0E74FF40072002106F13000FFF7D5F9F5
:102B680049463046FFF7C8FAF0624FF0000873890B
:102B780098450BD20123F3703046FFF7B5FBF8B93F
:102B880008F10108F36A0133F362F0E7F36AA3EB93
:102B98000803F362C4F8189049463046FFF7ACFAC8
:102BA800E061A1E70420A5E70420A3E70220A1E74C
:102BB80001209FE707209DE702209BE7012099E776
:102BC800012097E770B5044606680021FFF77DFEEF
:102BD800054640B1284670BD00212046FFF76CFF2E
:102BE80005460028F6D1E1693046FFF7A7FB054600
:102BF8000028EFD1206A03787BB1C37A03F03F0342
:102C0800A371C37A13F0080FE6D10B2204F1240153
:102C1800FFF780F90028DFD1DCE70425DAE730B5D3
:102C280083B004460191056801E001330193019BDB
:102C38001A782F2AF9D05C2AF7D00022A2601B78D4
:102C48001F2B1ED901A92046FFF79AFA034600BB9D
:102C58002046FFF7B7FF94F82F200346E0B912F09B
:102C6800040F16D1A37913F0100F1CD005F1300111
:102C78006369C3F3080319442846FFF75AFAA060AA
:102C8800E0E7802384F82F3011462046FFF71DFE29
:102C98000346184603B030BD0428FAD112F0040FD9
:102CA800F7D10523F5E70523F3E7F8B504460F4602
:102CB80006680021FFF709FE0346C0B9002508E0B1
:102CC8000135BD4213D001212046FFF7F5FE03462A
:102CD80068B9E1693046FFF731FB034638B9226A23
:102CE8001278E52AECD0002AEAD00025EBE7042B7D
:102CF80001D01846F8BD0723FBE770B504460668FF
:102D08000121FFF7D2FF054608B1284670BDE169E9
:102D18003046FFF713FB05460028F6D12022002194
:102D2800206AFFF7F2F80B2204F12401206AFFF76A
:102D3800E3F80123F370E8E770B50446FFF7D4FA27
:102D4800054648B92378032B08D00022114660783D
:102D5800FFF7A8F800B10125284670BD2379012B9B
:102D6800F3D104F130064FF4007200213046FFF72A
:102D7800CCF84AF6552104F22E20FFF7AFF80F4998
:102D88003046FFF7AFF80E4904F50570FFF7AAF8CB
:102D9800216904F50670FFF7A5F8E16804F50770E6
:102DA800FFF7A0F8E2690132E26201233146607858
:102DB800FFF76CF800232371C7E700BF5252614147
:102DC8007272416170B584B001900091164604A8F2
:102DD80040F8041DFFF73AFA041E1EDB114B03EB03
:102DE80084031D6A25B12846FFF768F900232B7074
:102DF800019B0BB100221A70019B0A4800EB84006A
:102E0800036263B1012E02D0002004B070BD00221D
:102E180001A96846FFF7EAFAF7E70B20F5E7002073
:102E2800F3E700BF480000202DE9F04391B001917D
:102E3800002800F00B810546164602F03F073A4687
:102E480003A901A8FFF7D2FA044630B10CB1002358
:102E58002B60204611B0BDE8F083039B04930199D1
:102E680004A8FFF7DCFE044660B99DF93F30002B4B
:102E780051DB37F0010314BF0121002104A8FFF73B
:102E880061F8044616F01C0F5BD0002C4FD0042CC0
:102E980043D047F00807002C62D117F0080F5FD025
:102EA800FEF72CFC064601460C980E30FFF71AF880
:102EB80031460C981630FFF715F80C9B2022DA7271
:102EC800039EDDF8308041463046FFF732F98146EF
:102ED800002241463046FFF73FF900210C981C308C
:102EE800FFF700F8039B0122DA70B9F1000F37D021
:102EF800039BDE6A0022494604A8FFF799FD0446B1
:102F080070BB31460398FFF719FA044609F1FF33FD
:102F1800039AD36024E00624B4E7FFF74DF808B914
:102F28001224B6E704A8FFF7E8FE0446B1E79DF8C7
:102F3800163013F0110F12D116F0040FABD008247D
:102F48000EE06CB99DF8163013F0100F4CD116F046
:102F5800020F05D013F0010F02D0072416E0072452
:102F6800A4B917F0080F01D047F04007039BDB6AAC
:102F78006B620C9BAB6237F0010314BF0121002187
:102F880004A8FFF729F8286100285DD0002C7FF4F9
:102F98005DAF039EDDF8308041463046FFF7C9F843
:102FA800A86008F11C00FEF78EFFE8600021E962C6
:102FB8002E60F388AB802F7569752962A96105F1C8
:102FC80030084FF400724046FEF79FFF17F0200FBD
:102FD8003FF43CAFEE68002E3FF438AFAE61039B80
:102FE8005F897F02A96805E00424CFE7B1F1FF3FBC
:102FF8000BD0F61B5CB9BE4209D92846FFF7FDFB8A
:1030080001460128F2D80224F0E70124F1E7E9613A
:10301800002C7FF41BAFC6F30803002B3FF416AF58
:10302800039F3846FFF768F808B902240FE700EB5A
:1030380056222A62012341467878FEF71BFF0028B2
:103048003FF404AF012402E70224FFE6092400E765
:103058002DE9F04F85B00446894617469846002367
:10306800C8F80030009003A9FFF71AF906460028AF
:1030780040F09B80667D002E40F09780237D13F002
:10308800010F00F0A980E568A369ED1ABD4256D387
:103098003D4654E0E36A1BB12046FFF739F85EE08D
:1030A800E1690098FFF7A9FB59E0022666757CE004
:1030B8000126667579E00226667576E094F9143083
:1030C800002B02DB4FEA4B272FE0206AA0EB0A0017
:1030D8005845F7D24FF4007204F1300109EB402053
:1030E800FEF70AFFEEE7226A52450DD094F9143034
:1030F800002B5EDB0123524604F13001039840782F
:10310800FEF7B8FE002864D1C4F820A0A369C3F371
:103118000803C3F50077BD4200D22F4604F1300101
:103128003A4619444846FEF7E7FEB944A3693B44CA
:10313800A361D8F800303B44C8F80030ED1B002DDF
:1031480033D0A169C1F30803002BDFD1039B5F894A
:10315800013F17EA512708D100299BD1A06801280F
:10316800A3D9B0F1FF3FA3D0E061039B0193E169CC
:103178001846FEF7C1FF824600289CD0BA445FEA91
:10318800552BB0D007EB0B03019A5289934201D912
:10319800A2EB070B5B465246494601984078FEF77A
:1031A80069FE00288AD001266675304605B0BDE85C
:1031B800F08F012304F1300101984078FEF766FE94
:1031C80020B9237D03F07F03237593E701266675F5
:1031D800EBE701266675E8E70726E6E770B582B0F3
:1031E800044601A9FFF75CF8034678B9227D12F07E
:1031F800400F0BD012F0800F0BD1FEF77FFA064676
:10320800616A0198FFF79AF8034680B1184602B040
:1032180070BD0123226A04F1300101984078FEF75D
:1032280035FE48BB237D03F07F032375E5E7A56AD8
:10323800EB7A43F02003EB72A26829462068FEF778
:103248008BFFE16805F11C00FEF74CFE314605F1E5
:103258001600FEF747FE002105F11200FEF73EFEBC
:10326800019B0122DA700198FFF766FD0346227D73
:1032780022F040022275C9E70123C7E710B582B0E2
:103288000446FFF7ABFF034610B1184602B010BD65
:1032980001A92046FFF704F803460028F5D1206964
:1032A800FEF7ECFE03460028EFD100222260ECE78F
:1032B8002DE9F04788B001908A461446002207A9F4
:1032C80001A8FFF793F8804600285AD1079B23608E
:1032D8001A695D69A91E8A4208D91A78012A08D094
:1032E800D3F8209000242646274632E0CAF800206A
:1032F80047E002930224002704E00134079B5B693E
:10330800A34236D9214602A8FFF777FAB0F1FF3F6A
:103318002DD0012839D00028EFD10137EDE709F188
:10332800010649460798FFF709F8804608BB079C3D
:103338003034B1464FF400760DE02046FEF7BEFD6E
:1033480000B901370234023E01E00434043E013D75
:103358000FD0002EE3D0079B1B78022BEDD0204620
:10336800FEF7B1FD30F07043EFD10137EDE74FF0D4
:103378000108CAF80070079B1F611A7942F0010220
:103388001A71404608B0BDE8F0874FF00208F0E730
:10339800104B5B7ADBB930B40E4B5D7AEDB200248A
:1033A8005C555D7A03EB85056860587A18440272AB
:1033B8005A7AD2B2501CC0B2587230320A703A23CC
:1033C8004B702F238B70CC70204630BC7047012087
:1033D800704700BF7000002008B50022FFF7D8FF33
:1033E80008BD0000DFF834D00D480E490E4A00230E
:1033F80002E0D458C4500433C4188C42F9D30B4AA1
:103408000B4C002301E013600432A242FBD3FDF70A
:10341800F1F900F011F8FDF715F9704700000220E6
:103428000000002028000020C835000828000020DF
:1034380074050020FEE7000070B50D4E0D4CA41B6E
:10344800A4100025A54209D10B4E0C4C00F020F821
:10345800A41BA4100025A54205D170BD56F825303F
:1034680098470135EEE756F8253098470135F2E7D9
:10347800C0350008C0350008C0350008C43500084C
:1034880002440346934200D1704703F8011BF9E751
:10349800F8B500BFF8BC08BC9E467047F8B500BF39
:0834A800F8BC08BC9E46704709
:1034B00000000000000000000102030406070809E4
:1034C00000000000010203044355454141414143CE
:1034D00045454549494941414592924F4F4F5555C0
:1034E000594F554F9C4F9E9F41494F55A5A5A6A7A3
:1034F000A8A9AAABACADAEAFB0B1B2B3B441414133
:10350000B8B9BABBBCBDBEBFC0C1C2C3C4C54141CE
:10351000C8C9CACBCCCDCECFD1D145454549494903
:1035200049D9DADBDCDD49DF4FE14F4F4F4FE6E8A9
:10353000E85555555959EEEFF0F1F2F3F4F5F6F779
:10354000F8F9FAFBFCFDFEFF010002000400080090
:1035500010002000000000000100040010004000E6
:103560000001000200000000616272652E77617642
:1035700000000000222A2B2C3A3B3C3D3E3F5B5D85
:103580007C7F0000EBFE904D53444F53352E3000AE
:103590004E4F204E414D452020202046415433328D
:1035A000202020004E4F204E414D45202020204617
:0835B0004154202020202000DE
:0835B80040CCFF7F0100000080
:0435C000AD01000851
:0435C4008901000871
:1035C8000024F400010000001000000001000000C9
:1035D800091700081D1700083117000839170008D7
:0835E80041170008010000007A
:04000005080033EDCF
:00000001FF
